BL51 BANKED LINKER/LOCATER V6.22                                                        01/13/2017  20:29:48  PAGE 1


BL51 BANKED LINKER/LOCATER V6.22, INVOKED BY:
C:\KEIL_V5\C51\BIN\BL51.EXE .\Objects\STARTUP.obj, .\Objects\Counter0.obj TO .\Objects\Counter0 PRINT (.\Listings\Counte
>> r0.m51) RAMSIZE (64)


MEMORY MODEL: SMALL


INPUT MODULES INCLUDED:
  .\Objects\STARTUP.obj (?C_STARTUP)
  .\Objects\Counter0.obj (COUNTER0)
  C:\KEIL_V5\C51\LIB\C51S.LIB (?C_INIT)


LINK MAP OF MODULE:  .\Objects\Counter0 (?C_STARTUP)


            TYPE    BASE      LENGTH    RELOCATION   SEGMENT NAME
            -----------------------------------------------------

            * * * * * * *   D A T A   M E M O R Y   * * * * * * *
            REG     0000H     0008H     ABSOLUTE     "REG BANK 0"
            DATA    0008H     0001H     UNIT         ?DT?COUNTER0
            IDATA   0009H     0001H     UNIT         ?STACK

            * * * * * * *   C O D E   M E M O R Y   * * * * * * *
            CODE    0000H     0003H     ABSOLUTE     
            CODE    0003H     0004H     UNIT         ?C_INITSEG
                    0007H     0004H                  *** GAP ***
            CODE    000BH     0003H     ABSOLUTE     
            CODE    000EH     008CH     UNIT         ?C_C51STARTUP
            CODE    009AH     001BH     UNIT         ?PR?COUNTER0?COUNTER0
            CODE    00B5H     0014H     UNIT         ?PR?MAIN?COUNTER0



OVERLAY MAP OF MODULE:   .\Objects\Counter0 (?C_STARTUP)


SEGMENT
  +--> CALLED SEGMENT
---------------------
?C_C51STARTUP
  +--> ?PR?MAIN?COUNTER0
  +--> ?C_INITSEG



SYMBOL TABLE OF MODULE:  .\Objects\Counter0 (?C_STARTUP)

  VALUE           TYPE          NAME
  ----------------------------------

  -------         MODULE        ?C_STARTUP
  C:000EH         SEGMENT       ?C_C51STARTUP
  I:0009H         SEGMENT       ?STACK
  C:0000H         PUBLIC        ?C_STARTUP
  D:00E0H         SYMBOL        ACC
BL51 BANKED LINKER/LOCATER V6.22                                                      01/13/2017  20:29:48  PAGE 2


  D:00F0H         SYMBOL        B
  D:0083H         SYMBOL        DPH
  D:0082H         SYMBOL        DPL
  N:0000H         SYMBOL        IBPSTACK
  N:0100H         SYMBOL        IBPSTACKTOP
  N:0080H         SYMBOL        IDATALEN
  C:0011H         SYMBOL        IDATALOOP
  N:0000H         SYMBOL        PBPSTACK
  N:0100H         SYMBOL        PBPSTACKTOP
  N:0000H         SYMBOL        PDATALEN
  N:0000H         SYMBOL        PDATASTART
  N:0000H         SYMBOL        PPAGE
  N:0000H         SYMBOL        PPAGEENABLE
  D:00A0H         SYMBOL        PPAGE_SFR
  D:0081H         SYMBOL        SP
  C:000EH         SYMBOL        STARTUP1
  N:0000H         SYMBOL        XBPSTACK
  N:0000H         SYMBOL        XBPSTACKTOP
  N:0000H         SYMBOL        XDATALEN
  N:0000H         SYMBOL        XDATASTART
  C:0000H         LINE#         126
  C:000EH         LINE#         133
  C:0010H         LINE#         134
  C:0011H         LINE#         135
  C:0012H         LINE#         136
  C:0014H         LINE#         185
  C:0017H         LINE#         196
  -------         ENDMOD        ?C_STARTUP

  -------         MODULE        COUNTER0
  C:0000H         SYMBOL        _ICE_DUMMY_
  D:0090H         PUBLIC        P1
  B:00A8H.7       PUBLIC        EA
  C:00B5H         PUBLIC        main
  C:009AH         PUBLIC        counter0
  D:0089H         PUBLIC        TMOD
  B:00A8H.1       PUBLIC        ET0
  D:008CH         PUBLIC        TH0
  D:008AH         PUBLIC        TL0
  D:0008H         PUBLIC        num
  B:0088H.4       PUBLIC        TR0
  -------         PROC          MAIN
  C:00B5H         LINE#         8
  C:00B5H         LINE#         9
  C:00B5H         LINE#         10
  C:00B8H         LINE#         12
  C:00BBH         LINE#         13
  C:00BEH         LINE#         14
  C:00C0H         LINE#         15
  C:00C2H         LINE#         16
  C:00C4H         LINE#         18
  C:00C7H         LINE#         20
  -------         ENDPROC       MAIN
  -------         PROC          COUNTER0
  C:009AH         LINE#         23
  C:009CH         LINE#         25
  C:009EH         LINE#         26
BL51 BANKED LINKER/LOCATER V6.22                                                      01/13/2017  20:29:48  PAGE 3


  C:00A1H         LINE#         27
  C:00A4H         LINE#         29
  C:00A6H         LINE#         30
  C:00A9H         LINE#         31
  C:00ADH         LINE#         32
  C:00ADH         LINE#         33
  C:00B0H         LINE#         34
  C:00B0H         LINE#         35
  C:00B2H         LINE#         36
  -------         ENDPROC       COUNTER0
  -------         ENDMOD        COUNTER0

Program Size: data=10.0 xdata=0 code=197
LINK/LOCATE RUN COMPLETE.  0 WARNING(S),  0 ERROR(S)
