:03000000020003F8
:0C000300787FE4F6D8FD75810E02004AFB
:10013700010E0F010A00010B0002080053020C0018
:0101470000B7
:10008F00C2A2C2A1C2A0D2A07F011200D68F90C27D
:10009F00A0D2A17F021200D68F90C2A1D2A27F035D
:1000AF001200D68F90C2A27FC87E00120113E50EF8
:1000BF00C41313135401F50B530B01E50E25E0F593
:0700CF000EE50B420E80BF9D
:1000D600EF24FE600C14601A2402702E850E0A802E
:1000E60029E50EC41313135401F50B530B01E50A4E
:1000F6008010E50EC413135403F50B530B03E50AE6
:0D01060025E025E0F50AE50B420AAF0A22CC
:10011300EF1FAC0670011E4C601985080C85090D94
:10012300C3E50C6480948040E7E50D150D70F1156F
:040133000C80ED222D
:10000F0002008FE493A3F8E493A34003F68001F278
:10001F0008DFF48029E493A3F85407240CC8C333F2
:10002F00C4540F4420C8834004F456800146F6DFC1
:10003F00E4800B0102040810204080900137E47E19
:10004F00019360BCA3FF543F30E509541FFEE493B6
:10005F00A360010ECF54C025E060A840B8E493A37D
:10006F00FAE493A3F8E493A3C8C582C8CAC583CAA8
:10007F00F0A3C8C582C8CAC583CADFE9DEE780BE60
:0101480000B6
:00000001FF
