:030000000200C833
:0C00C800787FE4F6D8FD75810D02010F71
:10017A00FEFDFBF7EFDFBF7FC0F9A4B0999282F8CA
:09018A0080908883C6A1868EFFD7
:1001C200010D00010800010900010B00010A0001F4
:0201D2000C001F
:1001930075A0011200038F0BEF90018293F5807F0E
:0801A300057E001201AB80EBA8
:100003007590F0E59054F064F0604E7F057E001229
:1000130001ABE59054F064F0603FE4F50AE50A9023
:10002300017A93F590E59054F064F06025E4F50CC3
:10003300E50C90017E93FF54F0F5095590B5090B3B
:10004300E50A90017A93FEEF5EF508050CE50CB422
:1000530004DE050AE50AB404C4E50812015400C22B
:100063007700BF7B00BC7D00B97E00B6B700B3BB91
:1000730000B0BD00ADBE00AAD700A7DB00A4DD0021
:10008300A1DE009EE7009BEB0098ED0095EE0000DB
:1000930000C57F00227F01227F02227F03227F048B
:1000A300227F05227F06227F07227F08227F0922E3
:1000B3007F0A227F0B227F0C227F0D227F0E227F5D
:0500C3000F227F102256
:1001AB00750D72EF1FAC0670011E4C6009AD0D157D
:0701BB000DED60EF80F7225B
:1000D400020193E493A3F8E493A34003F68001F2AE
:1000E40008DFF48029E493A3F85407240CC8C3332D
:1000F400C4540F4420C8834004F456800146F6DFFC
:10010400E4800B01020408102040809001C2E47EC8
:10011400019360BCA3FF543F30E509541FFEE493F0
:10012400A360010ECF54C025E060A840B8E493A3B7
:10013400FAE493A3F8E493A3C8C582C8CAC583CAE2
:10014400F0A3C8C582C8CAC583CADFE9DEE780BE9A
:0101D400002A
:10015400D083D082F8E4937012740193700DA3A33A
:1001640093F8740193F5828883E47374029368604E
:06017400EFA3A3A380DF4E
:00000001FF
