:03000000020026D5
:0C002600787FE4F6D8FD75810B02006DB8
:10015700C0F9A4B0999282F880908883C6A1868E50
:01016700FF98
:09001800010800010A00010900C1
:1000B200E4F50B7598D8758780758920758BFA756C
:1000C2008DFAD28ED2ACD2AF0508E4B50807E4B4FB
:1000D2000103750801E508540104F50BD29BB40134
:1000E20008759901900158800BE50BB402117599BE
:1000F20002900159E493F590900167E493F5A07F93
:08010200D07E0712000380C04B
:0300230002010ACD
:0D010A00C0E0C083C082C0D075D000C00727
:1001170030982D859909C298050AE50AB40006E4C6
:10012700B40102F50AE50A540FFFE5096401600509
:10013700E509B4020BC29BEF90015793F599F5A01F
:05014700309902C2998D
:0B014C00D007D0D0D082D083D0E032AA
:100003007D72EF1FAA0670011E4A6008AC051DEC45
:0400130060F080F821
:0100170022C6
:100032000200B2E493A3F8E493A34003F68001F232
:1000420008DFF48029E493A3F85407240CC8C333CF
:10005200C4540F4420C8834004F456800146F6DF9E
:10006200E4800B0102040810204080900018E47E16
:10007200019360BCA3FF543F30E509541FFEE49393
:10008200A360010ECF54C025E060A840B8E493A35A
:10009200FAE493A3F8E493A3C8C582C8CAC583CA85
:1000A200F0A3C8C582C8CAC583CADFE9DEE780BE3D
:0100210000DE
:00000001FF
