:03000000020143B7
:0C014300787FE4F6D8FD75811102018A76
:10000300011000040C00A8C000040800004B00010C
:020013001100DA
:1001CF00438920759850758780E47F807E01FDFC00
:1001DF00AB0BAA0AA909A808120026C004C005C0C3
:1001EF0006C007E47F02FEFDFCAB0FAA0EA90DA807
:1001FF000C120026D003D002D001D0001200B1EFB4
:10020F00F404F511F58D85118BD28ED2ACD2AF805F
:01021F00FEE0
:03002300020220B6
:10022000309808859910C298851099309902C29922
:01023000329B
:10014F000201CFE493A3F8E493A34003F68001F2F6
:10015F0008DFF48029E493A3F85407240CC8C333B1
:10016F00C4540F4420C8834004F456800146F6DF80
:10017F00E4800B0102040810204080900003E47E0D
:10018F00019360BCA3FF543F30E509541FFEE49375
:10019F00A360010ECF54C025E060A840B8E493A33C
:1001AF00FAE493A3F8E493A3C8C582C8CAC583CA67
:1001BF00F0A3C8C582C8CAC583CADFE9DEE780BE1F
:0100150000EA
:10002600E88FF0A4CC8BF0A42CFCE98EF0A42CFC79
:100036008AF0EDA42CFCEA8EF0A4CDA8F08BF0A4F7
:100046002DCC3825F0FDE98FF0A42CCD35F0FCEB56
:100056008EF0A4FEA9F0EB8FF0A4CFC5F02ECD391B
:0F006600FEE43CFCEAA42DCE35F0FDE43CFC2288
:1000750075F008758200EF2FFFEE33FECD33CDCC42
:1000850033CCC58233C5829BED9AEC99E5829840C5
:100095000CF582EE9BFEED9AFDEC99FC0FD5F0D6A2
:1000A500E4CEFBE4CDFAE4CCF9A88222B800C1B9CC
:1000B5000059BA002DEC8BF084CFCECDFCE5F0CB0A
:1000C500F97818EF2FFFEE33FEED33FDEC33FCEB43
:1000D50033FB10D703994004EB99FB0FD8E5E4F9FE
:1000E500FA227818EF2FFFEE33FEED33FDEC33FCEB
:1000F500C933C910D7059BE99A4007EC9BFCE99ADF
:10010500F90FD8E0E4C9FAE4CCFB2275F010EF2F23
:10011500FFEE33FEED33FDCC33CCC833C810D70723
:100125009BEC9AE899400AED9BFDEC9AFCE899F85E
:0E0135000FD5F0DAE4CDFBE4CCFAE4C8F922F1
:00000001FF
