:03000000020026D5
:0C002600787FE4F6D8FD75810802006DBB
:03001700010800DD
:10000300438920759850758BFD758DFDD28ED2ACCA
:04001300D2AF80FEEA
:030023000200B226
:1000B20030980D859908C2988508993099FDC299A2
:0100C200320B
:10003200020003E493A3F8E493A34003F68001F2E1
:1000420008DFF48029E493A3F85407240CC8C333CF
:10005200C4540F4420C8834004F456800146F6DF9E
:10006200E4800B0102040810204080900017E47E17
:10007200019360BCA3FF543F30E509541FFEE49393
:10008200A360010ECF54C025E060A840B8E493A35A
:10009200FAE493A3F8E493A3C8C582C8CAC583CA85
:1000A200F0A3C8C582C8CAC583CADFE9DEE780BE3D
:01001A0000E5
:00000001FF
