BL51 BANKED LINKER/LOCATER V6.22                                                        01/25/2017  01:45:36  PAGE 1


BL51 BANKED LINKER/LOCATER V6.22, INVOKED BY:
C:\KEIL_V5\C51\BIN\BL51.EXE .\Objects\STARTUP.obj, .\Objects\DS18B20.obj TO .\Objects\test PRINT (.\Listings\test.m51) R
>> AMSIZE (256)


MEMORY MODEL: SMALL


INPUT MODULES INCLUDED:
  .\Objects\STARTUP.obj (?C_STARTUP)
  .\Objects\DS18B20.obj (DS18B20)
  C:\KEIL_V5\C51\LIB\C51S.LIB (?C_INIT)


LINK MAP OF MODULE:  .\Objects\test (?C_STARTUP)


            TYPE    BASE      LENGTH    RELOCATION   SEGMENT NAME
            -----------------------------------------------------

            * * * * * * *   D A T A   M E M O R Y   * * * * * * *
            REG     0000H     0008H     ABSOLUTE     "REG BANK 0"
            DATA    0008H     0007H     UNIT         ?DT?DS18B20
            DATA    000FH     0006H     UNIT         _DATA_GROUP_
            IDATA   0015H     0001H     UNIT         ?STACK

            * * * * * * *   C O D E   M E M O R Y   * * * * * * *
            CODE    0000H     0003H     ABSOLUTE     
            CODE    0003H     008CH     UNIT         ?C_C51STARTUP
            CODE    008FH     0063H     UNIT         ?PR?MAIN?DS18B20
            CODE    00F2H     005CH     UNIT         ?PR?READTEMP?DS18B20
            CODE    014EH     0038H     UNIT         ?PR?_DISPLAY?DS18B20
            CODE    0186H     0030H     UNIT         ?PR?READDS?DS18B20
            CODE    01B6H     0029H     UNIT         ?PR?_WRITEDS?DS18B20
            CODE    01DFH     001BH     UNIT         ?CO?DS18B20
            CODE    01FAH     0012H     UNIT         ?PR?RESETDS?DS18B20
            CODE    020CH     000AH     UNIT         ?PR?_DELAY?DS18B20
            CODE    0216H     0007H     UNIT         ?C_INITSEG



OVERLAY MAP OF MODULE:   .\Objects\test (?C_STARTUP)


SEGMENT                          DATA_GROUP 
  +--> CALLED SEGMENT          START    LENGTH
----------------------------------------------
?C_C51STARTUP                  -----    -----
  +--> ?PR?MAIN?DS18B20
  +--> ?C_INITSEG

?PR?MAIN?DS18B20               000FH    0001H
  +--> ?PR?READTEMP?DS18B20
  +--> ?CO?DS18B20
  +--> ?PR?_DISPLAY?DS18B20

?PR?READTEMP?DS18B20           0010H    0003H
  +--> ?PR?RESETDS?DS18B20
BL51 BANKED LINKER/LOCATER V6.22                                                      01/25/2017  01:45:36  PAGE 2


  +--> ?PR?_WRITEDS?DS18B20
  +--> ?PR?READDS?DS18B20
  +--> ?CO?DS18B20

?PR?RESETDS?DS18B20            -----    -----
  +--> ?PR?_DELAY?DS18B20

?PR?_WRITEDS?DS18B20           0013H    0002H
  +--> ?PR?_DELAY?DS18B20

?PR?READDS?DS18B20             0013H    0002H
  +--> ?PR?_DELAY?DS18B20



SYMBOL TABLE OF MODULE:  .\Objects\test (?C_STARTUP)

  VALUE           TYPE          NAME
  ----------------------------------

  -------         MODULE        ?C_STARTUP
  C:0003H         SEGMENT       ?C_C51STARTUP
  I:0015H         SEGMENT       ?STACK
  C:0000H         PUBLIC        ?C_STARTUP
  D:00E0H         SYMBOL        ACC
  D:00F0H         SYMBOL        B
  D:0083H         SYMBOL        DPH
  D:0082H         SYMBOL        DPL
  N:0000H         SYMBOL        IBPSTACK
  N:0100H         SYMBOL        IBPSTACKTOP
  N:0080H         SYMBOL        IDATALEN
  C:0006H         SYMBOL        IDATALOOP
  N:0000H         SYMBOL        PBPSTACK
  N:0100H         SYMBOL        PBPSTACKTOP
  N:0000H         SYMBOL        PDATALEN
  N:0000H         SYMBOL        PDATASTART
  N:0000H         SYMBOL        PPAGE
  N:0000H         SYMBOL        PPAGEENABLE
  D:00A0H         SYMBOL        PPAGE_SFR
  D:0081H         SYMBOL        SP
  C:0003H         SYMBOL        STARTUP1
  N:0000H         SYMBOL        XBPSTACK
  N:0000H         SYMBOL        XBPSTACKTOP
  N:0000H         SYMBOL        XDATALEN
  N:0000H         SYMBOL        XDATASTART
  C:0000H         LINE#         126
  C:0003H         LINE#         133
  C:0005H         LINE#         134
  C:0006H         LINE#         135
  C:0007H         LINE#         136
  C:0009H         LINE#         185
  C:000CH         LINE#         196
  -------         ENDMOD        ?C_STARTUP

  -------         MODULE        DS18B20
  C:0000H         SYMBOL        _ICE_DUMMY_
  D:0080H         PUBLIC        P0
BL51 BANKED LINKER/LOCATER V6.22                                                      01/25/2017  01:45:36  PAGE 3


  D:0090H         PUBLIC        P1
  D:0008H         PUBLIC        screen
  B:0080H.0       PUBLIC        S1
  B:0080H.1       PUBLIC        S2
  B:0080H.2       PUBLIC        S3
  B:0080H.3       PUBLIC        S4
  C:01DFH         PUBLIC        table
  C:020CH         PUBLIC        _delay
  B:0080H.7       PUBLIC        DQ
  C:008FH         PUBLIC        main
  D:000CH         PUBLIC        temps
  C:0186H         PUBLIC        readDS
  C:00F2H         PUBLIC        readTemp
  C:01FAH         PUBLIC        resetDS
  C:01B6H         PUBLIC        _writeDS
  C:01EAH         PUBLIC        fraction
  C:014EH         PUBLIC        _display
  -------         PROC          MAIN
  -------         DO            
  D:000FH         SYMBOL        ch
  -------         ENDDO         
  C:008FH         LINE#         54
  C:008FH         LINE#         55
  C:008FH         LINE#         58
  C:008FH         LINE#         59
  C:008FH         LINE#         61
  C:0092H         LINE#         65
  C:0097H         LINE#         66
  C:00A0H         LINE#         68
  C:00A3H         LINE#         70
  C:00ABH         LINE#         71
  C:00B1H         LINE#         74
  C:00BAH         LINE#         75
  C:00C1H         LINE#         76
  C:00C3H         LINE#         79
  C:00C6H         LINE#         80
  C:00CBH         LINE#         83
  C:00CEH         LINE#         84
  C:00D4H         LINE#         85
  C:00D4H         LINE#         87
  C:00DBH         LINE#         89
  C:00E2H         LINE#         91
  C:00E9H         LINE#         93
  C:00F0H         LINE#         94
  -------         ENDPROC       MAIN
  -------         PROC          _DISPLAY
  D:0001H         SYMBOL        c
  D:0005H         SYMBOL        position
  -------         DO            
  D:0006H         SYMBOL        tm
  -------         ENDDO         
  C:014EH         LINE#         104
  C:0150H         LINE#         105
  C:0150H         LINE#         106
  C:0153H         LINE#         108
  C:015BH         LINE#         110
  C:015BH         LINE#         111
BL51 BANKED LINKER/LOCATER V6.22                                                      01/25/2017  01:45:36  PAGE 4


  C:015BH         LINE#         113
  C:016AH         LINE#         114
  C:016AH         LINE#         115
  C:016AH         LINE#         116
  C:016CH         LINE#         117
  C:016EH         LINE#         118
  C:016EH         LINE#         119
  C:0170H         LINE#         120
  C:0172H         LINE#         121
  C:0172H         LINE#         122
  C:0174H         LINE#         123
  C:0176H         LINE#         124
  C:0176H         LINE#         125
  C:0178H         LINE#         126
  C:0178H         LINE#         127
  C:0178H         LINE#         129
  C:017AH         LINE#         130
  C:0185H         LINE#         131
  -------         ENDPROC       _DISPLAY
  -------         PROC          RESETDS
  C:01FAH         LINE#         138
  C:01FAH         LINE#         139
  C:01FAH         LINE#         141
  C:01FCH         LINE#         143
  C:0203H         LINE#         145
  C:0205H         LINE#         147
  C:0208H         LINE#         149
  C:020BH         LINE#         150
  -------         ENDPROC       RESETDS
  -------         PROC          READDS
  -------         DO            
  D:0013H         SYMBOL        i
  D:0014H         SYMBOL        dat
  -------         ENDDO         
  C:0186H         LINE#         157
  C:0186H         LINE#         158
  C:0186H         LINE#         159
  C:0189H         LINE#         160
  C:018BH         LINE#         161
  C:018BH         LINE#         164
  C:018DH         LINE#         166
  C:018FH         LINE#         168
  C:0191H         LINE#         169
  C:01A3H         LINE#         171
  C:01AAH         LINE#         172
  C:01B3H         LINE#         174
  C:01B5H         LINE#         175
  -------         ENDPROC       READDS
  -------         PROC          _WRITEDS
  D:0013H         SYMBOL        cmd
  -------         DO            
  D:0014H         SYMBOL        i
  -------         ENDDO         
  C:01B6H         LINE#         182
  C:01B8H         LINE#         183
  C:01B8H         LINE#         184
  C:01BBH         LINE#         185
BL51 BANKED LINKER/LOCATER V6.22                                                      01/25/2017  01:45:36  PAGE 5


  C:01BDH         LINE#         186
  C:01BDH         LINE#         188
  C:01BFH         LINE#         190
  C:01C1H         LINE#         191
  C:01C6H         LINE#         193
  C:01CDH         LINE#         195
  C:01CFH         LINE#         196
  C:01D5H         LINE#         197
  C:01DEH         LINE#         198
  -------         ENDPROC       _WRITEDS
  -------         PROC          READTEMP
  -------         DO            
  D:0010H         SYMBOL        dat
  D:0007H         SYMBOL        temp
  D:0012H         SYMBOL        n
  -------         ENDDO         
  C:00F2H         LINE#         205
  C:00F2H         LINE#         206
  C:00F2H         LINE#         210
  C:00F5H         LINE#         212
  C:00FAH         LINE#         214
  C:00FFH         LINE#         216
  C:0102H         LINE#         218
  C:0105H         LINE#         220
  C:010AH         LINE#         222
  C:010FH         LINE#         224
  C:0114H         LINE#         226
  C:0119H         LINE#         228
  C:011CH         LINE#         230
  C:0129H         LINE#         232
  C:012EH         LINE#         233
  C:012EH         LINE#         234
  C:0131H         LINE#         235
  C:0136H         LINE#         236
  C:013AH         LINE#         237
  C:013AH         LINE#         238
  C:013CH         LINE#         240
  C:013CH         LINE#         241
  C:013FH         LINE#         242
  C:0141H         LINE#         243
  C:0147H         LINE#         244
  C:014DH         LINE#         245
  C:014DH         LINE#         246
  -------         ENDPROC       READTEMP
  -------         PROC          _DELAY
  D:0006H         SYMBOL        t
  C:020CH         LINE#         254
  C:020CH         LINE#         255
  C:020CH         LINE#         256
  C:0215H         LINE#         257
  -------         ENDPROC       _DELAY
  -------         ENDMOD        DS18B20

Program Size: data=22.0 xdata=0 code=541
LINK/LOCATE RUN COMPLETE.  0 WARNING(S),  0 ERROR(S)
