C51 COMPILER V9.54   ELEDRIVEN                                                             01/16/2017 11:25:06 PAGE 1   


C51 COMPILER V9.54, COMPILATION OF MODULE ELEDRIVEN
OBJECT MODULE PLACED IN .\Objects\Eledriven.obj
COMPILER INVOKED BY: C:\Keil_v5\C51\BIN\C51.EXE Eledriven.c OPTIMIZE(8,SPEED) BROWSE DEBUG OBJECTEXTEND PRINT(.\Listings
                    -\Eledriven.lst) OBJECT(.\Objects\Eledriven.obj)

line level    source

   1          /****************************************
   2          *@文件: Eledriven.c
   3          *@作者: Scriptfan <scriptfan@hotmail.com>
   4          *@日期: 2017-1-15
   5          *@描述: 51实验板程序
   6          *       口控制ULN2003L来驱动直流电机的正反转
   7          *       按键UP控制电机正转，DOWN键控制电机反转
   8          *@接线: P01->MOT1, P02->MOT2, P03->UP, P04->LEFT
   9          *       P05->RIGHT, P06->DOWN
  10          *       电机接WX1和WX2
  11          ****************************************/
  12          
  13          #include <REGX52.H>
  14          
  15          typedef unsigned char uchar;
  16          typedef unsigned int uint;
  17          typedef unsigned long ulong;
  18          
  19          #define STOP 0  // 停止
  20          #define UP 1    // 持续正转
  21          #define LEFT 2  // 正转1次
  22          #define RIGHT 3 // 反转1次
  23          #define DOWN 4  // 持续反转
  24          #define MAX 9   // 最大占空比
  25          #define MIN 1   // 最小占空比
  26          #define STEP 1  // 增减占空比步长
  27          
  28          sbit TO_LEFT = P0^0;
  29          sbit TO_RIGHT = P0^1;
  30          sbit KEY_UP = P0^2;
  31          sbit KEY_LEFT = P0^3;
  32          sbit KEY_RIGHT = P0^4;
  33          sbit KEY_DOWN = P0^5;
  34          sbit KEY_LED = P0^6;
  35          sbit COUNTER_LED = P0^7;
  36          
  37          uchar DIRECT = 0;
  38          uchar SPACE = 5;
  39          uchar COUNT = 0;
  40          uchar TIMER = 0;
  41          
  42          // 函数申明
  43          void delay(uint);
  44          void key_scan(void);
  45          
  46          void main(void)
  47          {
  48   1              // 初始化定时器T0 
  49   1              TH0 = 0xDB;
  50   1              TL0 = 0xFF;
  51   1              TMOD = 0x01;
  52   1              ET0 = 1;
  53   1              EA = 1;
  54   1              TR0 = 1;
C51 COMPILER V9.54   ELEDRIVEN                                                             01/16/2017 11:25:06 PAGE 2   

  55   1              
  56   1              // 按键出入初始化
  57   1              KEY_UP = 1;
  58   1              KEY_LEFT = 1;
  59   1              KEY_RIGHT = 1;
  60   1              KEY_DOWN = 1;
  61   1      
  62   1              while(1)
  63   1              {
  64   2                      key_scan();
  65   2                      //if(DIRECT != STOP)
  66   2                      //{
  67   2                      //      KEY_LED = 0;
  68   2                      //}
  69   2              }
  70   1      }
  71          
  72          /****************************************
  73          *@功能: 定时器T0中断函数
  74          *@描述: 精确计时10毫秒
  75          *@参数: void
  76          ****************************************/
  77          void timer0() interrupt 1
  78          {
  79   1              //TR0 = 0;
  80   1              TH0 = 0xDB;
  81   1              TL0 = 0xFF;
  82   1              
  83   1              COUNT++;
  84   1              TIMER++;
  85   1              
  86   1              if(COUNT == 10)
  87   1              {
  88   2                      COUNT = 0;
  89   2              }
  90   1              
  91   1              if(TIMER == 100)
  92   1              {
  93   2                      COUNTER_LED = 0;
  94   2                      TIMER = 0;
  95   2              } 
  96   1              else 
  97   1              {
  98   2                      COUNTER_LED = 1;
  99   2              }
 100   1              
 101   1              // 
 102   1              if(COUNT < SPACE)
 103   1              {
 104   2                      // 转动
 105   2                      switch(DIRECT)
 106   2                      {
 107   3                              case UP:
 108   3                                      TO_LEFT = 1;
 109   3                                      TO_RIGHT = 0;
 110   3                                      break;
 111   3                              case LEFT:
 112   3                                      TO_LEFT = 1;
 113   3                                      TO_RIGHT = 0;
 114   3                                      // 关闭电动机
 115   3                                      DIRECT = 0;
 116   3                                      break;
C51 COMPILER V9.54   ELEDRIVEN                                                             01/16/2017 11:25:06 PAGE 3   

 117   3                              case RIGHT:
 118   3                                      TO_LEFT = 0;
 119   3                                      TO_RIGHT = 1;
 120   3                                      // 关闭电动机
 121   3                                      DIRECT = 0;
 122   3                                      break;
 123   3                              case DOWN:
 124   3                                      TO_LEFT = 0;
 125   3                                      TO_RIGHT = 1;
 126   3                                      break;
 127   3                              default:
 128   3                                      TO_LEFT = 0;
 129   3                                      TO_RIGHT = 0;
 130   3                                      break;
 131   3                      }
 132   2              }
 133   1      
 134   1              // 占空位
 135   1              if(COUNT >= SPACE)
 136   1              {
 137   2                      TO_LEFT = 0;
 138   2                      TO_RIGHT = 0;
 139   2              }
 140   1              
 141   1              //TR0 = 1;
 142   1      }
 143          
 144          /****************************************
 145          *@功能: 按键检测函数
 146          *@描述: 检测是否有键被按下
 147          *@参数: void
 148          ****************************************/
 149          void key_scan(void)
 150          {
 151   1              // UP键按下
 152   1              if(KEY_UP == 0)
 153   1              {
 154   2                      // 延时5ms
 155   2                      delay(45);
 156   2                      // 确实被按下
 157   2                      if(KEY_UP == 0)
 158   2                      {
 159   3                              SPACE += STEP;
 160   3                              if(SPACE > MAX) SPACE = MAX;
 161   3                              
 162   3                              KEY_LED = 0;
 163   3                              while(KEY_UP == 0);
 164   3                              KEY_LED = 1;
 165   3                              
 166   3                              DIRECT = UP;
 167   3                      }
 168   2              }
 169   1      
 170   1              // LEFT键按下
 171   1              if(KEY_LEFT == 0)
 172   1              {
 173   2                      // 延时5ms
 174   2                      delay(45);
 175   2                      // 确实被按下
 176   2                      if(KEY_LEFT == 0)
 177   2                      {
 178   3                              KEY_LED = 0;
C51 COMPILER V9.54   ELEDRIVEN                                                             01/16/2017 11:25:06 PAGE 4   

 179   3                              while(KEY_LEFT == 0);
 180   3                              KEY_LED = 1;
 181   3                              
 182   3                              DIRECT = LEFT;
 183   3                      }
 184   2              }
 185   1      
 186   1              // RIGHT键按下
 187   1              if(KEY_RIGHT == 0)
 188   1              {
 189   2                      // 延时5ms
 190   2                      delay(45);
 191   2                      // 确实被按下
 192   2                      if(KEY_RIGHT == 0)
 193   2                      {
 194   3                              KEY_LED = 0;
 195   3                              while(KEY_RIGHT == 0);
 196   3                              KEY_LED = 1;
 197   3                              
 198   3                              DIRECT = RIGHT;
 199   3                      }
 200   2              }
 201   1      
 202   1              // DOWN键按下
 203   1              if(KEY_DOWN == 0)
 204   1              {
 205   2                      // 延时5ms
 206   2                      delay(45);
 207   2                      // 确实被按下
 208   2                      if(KEY_DOWN == 0)
 209   2                      {
 210   3                              SPACE -= STEP;
 211   3                              if(SPACE < MIN) SPACE = MIN;
 212   3                              
 213   3                              KEY_LED = 0;
 214   3                              while(KEY_DOWN == 0);
 215   3                              KEY_LED = 1;
 216   3                              
 217   3                              DIRECT = DOWN;
 218   3                      }
 219   2              }
 220   1              
 221   1              //DIRECT = STOP;
 222   1      }
 223          
 224          /****************************************
 225          *@功能: 延时函数
 226          *@描述: 最小执行时间为110微秒
 227          *@参数: t, 执行时长
 228          ****************************************/
 229          void delay(uint t)
 230          {
 231   1              uint time;
 232   1              while(t--)
 233   1              {
 234   2                      // 如果晶振是11.0592MHZ，则执行时间1.1微秒
 235   2                      for(time = 100; time > 0; time--);
 236   2              }
 237   1      }


MODULE INFORMATION:   STATIC OVERLAYABLE
C51 COMPILER V9.54   ELEDRIVEN                                                             01/16/2017 11:25:06 PAGE 5   

   CODE SIZE        =    270    ----
   CONSTANT SIZE    =   ----    ----
   XDATA SIZE       =   ----    ----
   PDATA SIZE       =   ----    ----
   DATA SIZE        =      4    ----
   IDATA SIZE       =   ----    ----
   BIT SIZE         =   ----    ----
END OF MODULE INFORMATION.


C51 COMPILATION COMPLETE.  0 WARNING(S),  0 ERROR(S)
