BL51 BANKED LINKER/LOCATER V6.22                                                        01/14/2017  10:10:11  PAGE 1


BL51 BANKED LINKER/LOCATER V6.22, INVOKED BY:
C:\KEIL_V5\C51\BIN\BL51.EXE D:\WORKS\单片机\89C1051\03.串口\串口调试ASM\SERIAL.OBJ


INPUT MODULES INCLUDED:
  D:\WORKS\单片机\89C1051\03.串口\串口调试ASM\SERIAL.OBJ (SERIAL)


LINK MAP OF MODULE:  D:\WORKS\单片机\89C1051\03.串口\串口调试ASM\SERIAL (SERIAL)


            TYPE    BASE      LENGTH    RELOCATION   SEGMENT NAME
            -----------------------------------------------------

            * * * * * * *   D A T A   M E M O R Y   * * * * * * *
            REG     0000H     0008H     ABSOLUTE     "REG BANK 0"

            * * * * * * *   C O D E   M E M O R Y   * * * * * * *
            CODE    0000H     0135H     ABSOLUTE     

Program Size: data=8.0 xdata=0 code=309
LINK/LOCATE RUN COMPLETE.  0 WARNING(S),  0 ERROR(S)
