BL51 BANKED LINKER/LOCATER V6.22                                                        01/25/2017  22:27:26  PAGE 1


BL51 BANKED LINKER/LOCATER V6.22, INVOKED BY:
C:\KEIL_V5\C51\BIN\BL51.EXE .\Objects\STARTUP.obj, .\Objects\NEC.obj TO .\Objects\NEC PRINT (.\Listings\NEC.m51) RAMSIZE
>>  (256)


MEMORY MODEL: SMALL


INPUT MODULES INCLUDED:
  .\Objects\STARTUP.obj (?C_STARTUP)
  .\Objects\NEC.obj (NEC)
  C:\KEIL_V5\C51\LIB\C51S.LIB (?C_INIT)


LINK MAP OF MODULE:  .\Objects\NEC (?C_STARTUP)


            TYPE    BASE      LENGTH    RELOCATION   SEGMENT NAME
            -----------------------------------------------------

            * * * * * * *   D A T A   M E M O R Y   * * * * * * *
            REG     0000H     0008H     ABSOLUTE     "REG BANK 0"
            REG     0008H     0008H     ABSOLUTE     "REG BANK 1"
            DATA    0010H     0004H     UNIT         ?DT?NEC
            DATA    0014H     0002H     UNIT         _DATA_GROUP_
            IDATA   0016H     0001H     UNIT         ?STACK

            * * * * * * *   C O D E   M E M O R Y   * * * * * * *
            CODE    0000H     0003H     ABSOLUTE     
            CODE    0003H     0003H     ABSOLUTE     
            CODE    0006H     008CH     UNIT         ?C_C51STARTUP
            CODE    0092H     0089H     UNIT         ?PR?INT0?NEC
            CODE    011BH     005BH     UNIT         ?PR?DISPLAY?NEC
            CODE    0176H     0010H     UNIT         ?CO?NEC
            CODE    0186H     000EH     UNIT         ?PR?MAIN?NEC
            CODE    0194H     000AH     UNIT         ?PR?_DELAY?NEC
            CODE    019EH     0007H     UNIT         ?C_INITSEG



OVERLAY MAP OF MODULE:   .\Objects\NEC (?C_STARTUP)


SEGMENT                          DATA_GROUP 
  +--> CALLED SEGMENT          START    LENGTH
----------------------------------------------
?C_C51STARTUP                  -----    -----
  +--> ?PR?MAIN?NEC
  +--> ?C_INITSEG

?PR?MAIN?NEC                   -----    -----
  +--> ?PR?DISPLAY?NEC

?PR?DISPLAY?NEC                -----    -----
  +--> ?CO?NEC

*** NEW ROOT ***************************************************

BL51 BANKED LINKER/LOCATER V6.22                                                      01/25/2017  22:27:26  PAGE 2


?PR?INT0?NEC                   0014H    0002H
  +--> ?PR?_DELAY?NEC



SYMBOL TABLE OF MODULE:  .\Objects\NEC (?C_STARTUP)

  VALUE           TYPE          NAME
  ----------------------------------

  -------         MODULE        ?C_STARTUP
  C:0006H         SEGMENT       ?C_C51STARTUP
  I:0016H         SEGMENT       ?STACK
  C:0000H         PUBLIC        ?C_STARTUP
  D:00E0H         SYMBOL        ACC
  D:00F0H         SYMBOL        B
  D:0083H         SYMBOL        DPH
  D:0082H         SYMBOL        DPL
  N:0000H         SYMBOL        IBPSTACK
  N:0100H         SYMBOL        IBPSTACKTOP
  N:0080H         SYMBOL        IDATALEN
  C:0009H         SYMBOL        IDATALOOP
  N:0000H         SYMBOL        PBPSTACK
  N:0100H         SYMBOL        PBPSTACKTOP
  N:0000H         SYMBOL        PDATALEN
  N:0000H         SYMBOL        PDATASTART
  N:0000H         SYMBOL        PPAGE
  N:0000H         SYMBOL        PPAGEENABLE
  D:00A0H         SYMBOL        PPAGE_SFR
  D:0081H         SYMBOL        SP
  C:0006H         SYMBOL        STARTUP1
  N:0000H         SYMBOL        XBPSTACK
  N:0000H         SYMBOL        XBPSTACKTOP
  N:0000H         SYMBOL        XDATALEN
  N:0000H         SYMBOL        XDATASTART
  C:0000H         LINE#         126
  C:0006H         LINE#         133
  C:0008H         LINE#         134
  C:0009H         LINE#         135
  C:000AH         LINE#         136
  C:000CH         LINE#         185
  C:000FH         LINE#         196
  -------         ENDMOD        ?C_STARTUP

  -------         MODULE        NEC
  C:0000H         SYMBOL        _ICE_DUMMY_
  D:0080H         PUBLIC        P0
  D:00A0H         PUBLIC        P2
  D:00B0H         PUBLIC        P3
  B:00A8H.7       PUBLIC        EA
  C:0176H         PUBLIC        table
  C:0194H         PUBLIC        _delay
  C:0186H         PUBLIC        main
  B:00B0H.2       PUBLIC        IRIN
  D:0088H         PUBLIC        TCON
  B:00A8H.0       PUBLIC        EX0
  C:011BH         PUBLIC        display
BL51 BANKED LINKER/LOCATER V6.22                                                      01/25/2017  22:27:26  PAGE 3


  C:0092H         PUBLIC        int0
  D:0010H         PUBLIC        GETCODE
  -------         PROC          MAIN
  C:0186H         LINE#         41
  C:0186H         LINE#         42
  C:0186H         LINE#         55
  C:0188H         LINE#         57
  C:018BH         LINE#         59
  C:018DH         LINE#         61
  C:018FH         LINE#         62
  C:018FH         LINE#         63
  C:018FH         LINE#         64
  C:0192H         LINE#         65
  -------         ENDPROC       MAIN
  -------         PROC          DISPLAY
  -------         DO            
  D:0007H         SYMBOL        k1
  D:0006H         SYMBOL        k2
  D:0005H         SYMBOL        k3
  D:0004H         SYMBOL        k4
  D:0003H         SYMBOL        n
  -------         ENDDO         
  C:011BH         LINE#         72
  C:011BH         LINE#         73
  C:011BH         LINE#         77
  C:011DH         LINE#         79
  C:0123H         LINE#         80
  C:0128H         LINE#         81
  C:012EH         LINE#         82
  C:0133H         LINE#         85
  C:0135H         LINE#         86
  C:0135H         LINE#         87
  C:0138H         LINE#         88
  C:013FH         LINE#         89
  C:0143H         LINE#         92
  C:0145H         LINE#         93
  C:0145H         LINE#         94
  C:0148H         LINE#         95
  C:014FH         LINE#         96
  C:0153H         LINE#         99
  C:0155H         LINE#         100
  C:0155H         LINE#         101
  C:0158H         LINE#         102
  C:015FH         LINE#         103
  C:0163H         LINE#         106
  C:0165H         LINE#         107
  C:0165H         LINE#         108
  C:0168H         LINE#         109
  C:016FH         LINE#         110
  C:0173H         LINE#         113
  C:0175H         LINE#         114
  -------         ENDPROC       DISPLAY
  -------         PROC          INT0
  -------         DO            
  D:0014H         SYMBOL        n
  D:0015H         SYMBOL        i
  -------         ENDDO         
BL51 BANKED LINKER/LOCATER V6.22                                                      01/25/2017  22:27:26  PAGE 4


  C:0092H         LINE#         120
  C:009FH         LINE#         124
  C:00A1H         LINE#         126
  C:00A8H         LINE#         128
  C:00ABH         LINE#         129
  C:00ABH         LINE#         130
  C:00AFH         LINE#         132
  C:00AFH         LINE#         135
  C:00B2H         LINE#         137
  C:00B9H         LINE#         141
  C:00BCH         LINE#         142
  C:00BCH         LINE#         144
  C:00BFH         LINE#         145
  C:00BFH         LINE#         147
  C:00C2H         LINE#         152
  C:00C9H         LINE#         153
  C:00CCH         LINE#         154
  C:00CCH         LINE#         156
  C:00CCH         LINE#         158
  C:00CCH         LINE#         160
  C:00E2H         LINE#         162
  C:00E5H         LINE#         163
  C:00E5H         LINE#         164
  C:00EEH         LINE#         165
  C:00F7H         LINE#         168
  C:00FEH         LINE#         169
  C:00FEH         LINE#         170
  C:010AH         LINE#         171
  C:010EH         LINE#         173
  C:010EH         LINE#         184
  C:0110H         LINE#         185
  -------         ENDPROC       INT0
  -------         PROC          _DELAY
  D:0006H         SYMBOL        t
  C:0194H         LINE#         193
  C:0194H         LINE#         194
  C:0194H         LINE#         195
  C:019DH         LINE#         196
  -------         ENDPROC       _DELAY
  -------         ENDMOD        NEC

Program Size: data=23.0 xdata=0 code=421
LINK/LOCATE RUN COMPLETE.  0 WARNING(S),  0 ERROR(S)
