BL51 BANKED LINKER/LOCATER V6.22                                                        12/15/2016  20:56:39  PAGE 1


BL51 BANKED LINKER/LOCATER V6.22, INVOKED BY:
C:\KEIL_V5\C51\BIN\BL51.EXE .\Objects\STARTUP.obj, .\Objects\Program.obj TO .\Objects\Project PRINT (.\Listings\Project.
>> m51) RAMSIZE (256)


MEMORY MODEL: SMALL


INPUT MODULES INCLUDED:
  .\Objects\STARTUP.obj (?C_STARTUP)
  .\Objects\Program.obj (PROGRAM)


LINK MAP OF MODULE:  .\Objects\Project (?C_STARTUP)


            TYPE    BASE      LENGTH    RELOCATION   SEGMENT NAME
            -----------------------------------------------------

            * * * * * * *   D A T A   M E M O R Y   * * * * * * *
            REG     0000H     0008H     ABSOLUTE     "REG BANK 0"
            DATA    0008H     0001H     UNIT         _DATA_GROUP_
            IDATA   0009H     0001H     UNIT         ?STACK

            * * * * * * *   C O D E   M E M O R Y   * * * * * * *
            CODE    0000H     0003H     ABSOLUTE     
            CODE    0003H     001EH     UNIT         ?PR?MAIN?PROGRAM
            CODE    0021H     0017H     UNIT         ?PR?DELAY?PROGRAM
            CODE    0038H     000CH     UNIT         ?C_C51STARTUP



OVERLAY MAP OF MODULE:   .\Objects\Project (?C_STARTUP)


SEGMENT                          DATA_GROUP 
  +--> CALLED SEGMENT          START    LENGTH
----------------------------------------------
?C_C51STARTUP                  -----    -----
  +--> ?PR?MAIN?PROGRAM

?PR?MAIN?PROGRAM               0008H    0001H
  +--> ?PR?DELAY?PROGRAM



SYMBOL TABLE OF MODULE:  .\Objects\Project (?C_STARTUP)

  VALUE           TYPE          NAME
  ----------------------------------

  -------         MODULE        ?C_STARTUP
  C:0038H         SEGMENT       ?C_C51STARTUP
  I:0009H         SEGMENT       ?STACK
  C:0000H         PUBLIC        ?C_STARTUP
  D:00E0H         SYMBOL        ACC
  D:00F0H         SYMBOL        B
  D:0083H         SYMBOL        DPH
BL51 BANKED LINKER/LOCATER V6.22                                                      12/15/2016  20:56:39  PAGE 2


  D:0082H         SYMBOL        DPL
  N:0000H         SYMBOL        IBPSTACK
  N:0100H         SYMBOL        IBPSTACKTOP
  N:0080H         SYMBOL        IDATALEN
  C:003BH         SYMBOL        IDATALOOP
  N:0000H         SYMBOL        PBPSTACK
  N:0100H         SYMBOL        PBPSTACKTOP
  N:0000H         SYMBOL        PDATALEN
  N:0000H         SYMBOL        PDATASTART
  N:0000H         SYMBOL        PPAGE
  N:0000H         SYMBOL        PPAGEENABLE
  D:00A0H         SYMBOL        PPAGE_SFR
  D:0081H         SYMBOL        SP
  C:0038H         SYMBOL        STARTUP1
  N:0000H         SYMBOL        XBPSTACK
  N:0000H         SYMBOL        XBPSTACKTOP
  N:0000H         SYMBOL        XDATALEN
  N:0000H         SYMBOL        XDATASTART
  C:0000H         LINE#         126
  C:0038H         LINE#         133
  C:003AH         LINE#         134
  C:003BH         LINE#         135
  C:003CH         LINE#         136
  C:003EH         LINE#         185
  C:0041H         LINE#         196
  -------         ENDMOD        ?C_STARTUP

  -------         MODULE        PROGRAM
  C:0000H         SYMBOL        _ICE_DUMMY_
  C:0021H         PUBLIC        delay
  B:0098H.1       PUBLIC        TI
  C:0003H         PUBLIC        main
  D:0099H         PUBLIC        SBUF
  D:0098H         PUBLIC        SCON
  D:0089H         PUBLIC        TMOD
  D:008DH         PUBLIC        TH1
  D:008BH         PUBLIC        TL1
  B:0088H.6       PUBLIC        TR1
  -------         PROC          MAIN
  -------         DO            
  D:0008H         SYMBOL        temp
  -------         ENDDO         
  C:0003H         LINE#         13
  C:0003H         LINE#         14
  C:0003H         LINE#         15
  C:0006H         LINE#         18
  C:0009H         LINE#         20
  C:000CH         LINE#         24
  C:0012H         LINE#         26
  C:0014H         LINE#         29
  C:0014H         LINE#         30
  C:0014H         LINE#         31
  C:0017H         LINE#         32
  C:001AH         LINE#         33
  C:001DH         LINE#         34
  C:001FH         LINE#         35
  -------         ENDPROC       MAIN
BL51 BANKED LINKER/LOCATER V6.22                                                      12/15/2016  20:56:39  PAGE 3


  -------         PROC          DELAY
  -------         DO            
  D:0007H         SYMBOL        t
  D:0004H         SYMBOL        i
  -------         ENDDO         
  C:0021H         LINE#         38
  C:0021H         LINE#         39
  C:0021H         LINE#         40
  C:0023H         LINE#         41
  C:0026H         LINE#         42
  C:0026H         LINE#         43
  C:0026H         LINE#         44
  C:002CH         LINE#         45
  C:0037H         LINE#         46
  -------         ENDPROC       DELAY
  -------         ENDMOD        PROGRAM

Program Size: data=10.0 xdata=0 code=68
LINK/LOCATE RUN COMPLETE.  0 WARNING(S),  0 ERROR(S)
