C51 COMPILER V9.54   IIC                                                                   12/21/2016 14:56:20 PAGE 1   


C51 COMPILER V9.54, COMPILATION OF MODULE IIC
OBJECT MODULE PLACED IN .\Objects\IIC.obj
COMPILER INVOKED BY: C:\Keil_v5\C51\BIN\C51.EXE IIC.c OPTIMIZE(8,SPEED) BROWSE DEBUG OBJECTEXTEND PRINT(.\Listings\IIC.l
                    -st) OBJECT(.\Objects\IIC.obj)

line level    source

   1          // 描述：IIC总线实现函数包
   2          #include <REGX52.H>
   3          #include "Common.h"
   4          #include "IIC.h"
   5          
   6          #define WAIT_TIME 60
   7          
   8          sbit SDA = P2^0;
   9          sbit SCL = P2^1;
  10          
  11          // 起始信号
  12          void start()
  13          {
  14   1              SCL = 1;
  15   1              SDA = 1;
  16   1              wait(WAIT_TIME);
  17   1              SDA = 0;
  18   1              wait(WAIT_TIME);
  19   1              SCL = 0;
  20   1              wait(WAIT_TIME);
  21   1      }
  22          
  23          // 终止信号
  24          void stop()
  25          {
  26   1              SCL = 0;
  27   1              SDA = 0;
  28   1              SCL = 1;
  29   1              wait(WAIT_TIME);
  30   1              SDA = 1;
  31   1              wait(WAIT_TIME);
  32   1              SCL = 0;
  33   1              wait(WAIT_TIME);
  34   1      }
  35          
  36          // 接受设备产生的应答信号
  37          // 返回值：ACK:0->应答,1->非应答
  38          // 每传送一个字节的数据（地址及命令）后，接受设备都会产生一个应答信号。
  39          // SCL为高电平期间，接受设备将SDA拉低表示应答，否则为非应答
  40          bit ack(void)
  41          {
  42   1              bit v = 0;
  43   1              
  44   1              SDA = 1;
  45   1              SCL = 1;
  46   1              wait(WAIT_TIME/2);
  47   1              v = SDA;        
  48   1              // SCL为低电平时SDA上的数据才允许变化,为传送下一个字节做准备
  49   1              SCL = 0; 
  50   1              wait(WAIT_TIME);
  51   1              
  52   1              return (v == 1) ? 0 : 1;
  53   1      }
  54          
C51 COMPILER V9.54   IIC                                                                   12/21/2016 14:56:20 PAGE 2   

  55          // 读数据一个字节的数据
  56          // 通过IIC总线读回的数据
  57          // SCL为高电平期间数据才是稳定的，所以在SCL高的时候读取SDA上的数据
  58          uchar read_byte()
  59          {
  60   1              uchar byte = 0, n = 0;
  61   1      
  62   1              //SCL = 0;
  63   1              //wait(WAIT_TIME);
  64   1              
  65   1              for(n = 0; n < 8; n++)
  66   1              {
  67   2                      byte <<= 1;
  68   2                      // 释放总线
  69   2                      SDA = 1;
  70   2                      // 时钟线拉高为读数据做准备
  71   2                      SCL = 1; 
  72   2                      wait(10);               
  73   2                      byte |= SDA;
  74   2                      wait(10);
  75   2                      SCL = 0;                
  76   2                      //wait(10);
  77   2              }
  78   1                      
  79   1              return byte;
  80   1      }
  81          
  82          // 写数据
  83          // 参数:要发送的数据  
  84          // IIC总线进行数据传输时，SCL为高电平期间SDA上的数据必须保持稳定
  85          // 只有SCL为低电平期间SDA上的数据才允许变化
  86          // 数据传送时，先传高位在传低位
  87          void write_byte(uchar byte)
  88          {
  89   1              bit temp;
  90   1              uchar n = 0;
  91   1              // 拉低时钟线,准备给SDA写数据
  92   1              SCL = 0;
  93   1              
  94   1              for(n = 0; n < 8; n++)
  95   1              {
  96   2                      // 数据从高位开始发送
  97   2                      temp = (byte & 0x80) > 0 ? 1 : 0;       
  98   2      
  99   2                      SDA = temp;
 100   2                      SCL = 1;
 101   2                      wait(WAIT_TIME);
 102   2                      SCL = 0;
 103   2                      wait(WAIT_TIME);
 104   2                      
 105   2                      byte <<= 1;
 106   2              }
 107   1                      
 108   1              //ack();
 109   1      }


MODULE INFORMATION:   STATIC OVERLAYABLE
   CODE SIZE        =    183    ----
   CONSTANT SIZE    =   ----    ----
   XDATA SIZE       =   ----    ----
   PDATA SIZE       =   ----    ----
C51 COMPILER V9.54   IIC                                                                   12/21/2016 14:56:20 PAGE 3   

   DATA SIZE        =   ----       4
   IDATA SIZE       =   ----    ----
   BIT SIZE         =   ----       2
END OF MODULE INFORMATION.


C51 COMPILATION COMPLETE.  0 WARNING(S),  0 ERROR(S)
