:03000000020003F8
:0C000300787FE4F6D8FD75811402004AF5
:1001DF00C0F9A4B0999282F88090BF00000102028A
:0B01EF000304040506060708080909C0
:06021600040800000000D6
:10008F001200F2E50EB401099001E9E493F50B803B
:10009F0003750BFFE50D75F00A84F50F9001DF93E3
:1000AF00F50AE50D75F00A8485F00FE50F93547F7F
:1000BF00F50FF509850C0FE50F93F508750FE8158A
:1000CF000FE50F60BB7D01AF0B12014E7D02AF0A32
:1000DF0012014E7D03AF0912014E7D04AF081201CC
:0300EF004E80DC64
:02014E00A907FF
:10015000E4FFFED283D282D281D280ED24FE600EF3
:1001600014600F1460102403700EC280800AC281D4
:100170008006C2828002C28389900FBF00010EEF09
:05018000640A4E70D678
:010185002257
:1001FA00C2877F647E0012020CD2872087FD308777
:02020A00FD22D3
:10018600E4F514F513C2870000D28730870FAF134A
:100196007401A807088002C333D8FC42147F0A7E84
:0F01A6000012020C0513E513C3940840D8AF14E0
:0101B5002227
:0201B6008F13A5
:1001B800E4F514F514C2870000E5131392877F0352
:1001C8007E0012020CD287E513C313F5130514E55C
:0601D80014C3940840DF8F
:0101DE0022FE
:1000F2001201FA7FCC1201B67F441201B63087FD9D
:100102001201FA7FCC1201B67FBE1201B61201862D
:100112008F101201868F111201FAE510C4540FFFDD
:10012200E511C454F04FFFE51130E70E750E01EFF3
:10013200F404F50DE510F4048007E4F50E8F0DE5E7
:0B01420010540FF5129001EA93F50C29
:01014D00228F
:0A020C00EF1F70011E144E70F72260
:10000F0002008FE493A3F8E493A34003F68001F278
:10001F0008DFF48029E493A3F85407240CC8C333F2
:10002F00C4540F4420C8834004F456800146F6DFC1
:10003F00E4800B0102040810204080900216E47E39
:10004F00019360BCA3FF543F30E509541FFEE493B6
:10005F00A360010ECF54C025E060A840B8E493A37D
:10006F00FAE493A3F8E493A3C8C582C8CAC583CAA8
:10007F00F0A3C8C582C8CAC583CADFE9DEE780BE60
:01021C0000E1
:00000001FF
