C51 COMPILER V9.54   PROGRAM                                                               12/18/2016 15:49:12 PAGE 1   


C51 COMPILER V9.54, COMPILATION OF MODULE PROGRAM
OBJECT MODULE PLACED IN .\Objects\Program.obj
COMPILER INVOKED BY: C:\Keil_v5\C51\BIN\C51.EXE Program.c OPTIMIZE(8,SPEED) BROWSE DEBUG OBJECTEXTEND PRINT(.\Listings\P
                    -rogram.lst) OBJECT(.\Objects\Program.obj)

line level    source

   1          // 功能：单机自发自收
   2          // 平台：Proteus
   3          // 实现：单片机通过串口发送一个字符，并显示在数码管上，然后又通过串口将接收到的字符显示在另一个数码管上
   4          //       波特率9600，晶振频率11.0592MHz，开启波特率倍增
   5          //       扫描法和中断法都测试成功
   6          
   7          #include <REGX52.H>
   8          #define uint unsigned int
   9          #define uchar unsigned char
  10          
  11          // 共阳极7段数码管0-F数字编码
  12          uchar code table[] = {
  13                  0xC0,0xF9,0xA4,0xB0,
  14                  0x99,0x92,0x82,0xF8,
  15                  0x80,0x90,0x88,0x83,
  16                  0xC6,0xA1,0x86,0x8E,
  17                  0xFF
  18          };
  19          
  20          // 声明延时函数
  21          void delay(uint t);
  22          
  23          void main(void)
  24          {
  25   1              uchar temp = 0;
  26   1              uchar n = 0;
  27   1              
  28   1              // 设置串口工作方式
  29   1              SCON = 0x50;
  30   1              // 波特率倍增
  31   1              //PCON = 0x80;    //SMOD = 1;
  32   1              // 设置定时器1工作方式
  33   1              TMOD = 0x20;
  34   1              // 设置定时寄存器初值
  35   1              TH1 = TL1 = 0xFA;
  36   1              // 启动定时器1
  37   1              TR1 = 1;
  38   1              // 打开串口
  39   1              ES = 1;
  40   1              // 打开中断
  41   1              EA = 1;
  42   1              
  43   1      //      // 扫描法
  44   1      //      while(1)
  45   1      //      {
  46   1      //              // 数码管不显示信息
  47   1      //              P1 = P2 = table[16];
  48   1      //              
  49   1      //              if(temp++ == 255)
  50   1      //              {
  51   1      //                      temp = 0;
  52   1      //              }
  53   1      //              // 得到一个0-16之间的数
  54   1      //              n = temp % 16;
C51 COMPILER V9.54   PROGRAM                                                               12/18/2016 15:49:12 PAGE 2   

  55   1      //              
  56   1      //              // 发送信息
  57   1      //              SBUF = table[n];
  58   1      //              while(!TI);
  59   1      //              TI = 0;
  60   1      //              // 将字符显示在数码管上
  61   1      //              P1 = table[n];
  62   1      
  63   1      //              delay(5);
  64   1      //              
  65   1      //              // 接收信息
  66   1      //              while(!RI);
  67   1      //              RI = 0;
  68   1      //              P2 = SBUF;
  69   1      //              
  70   1      //              delay(5);
  71   1      //      }
  72   1              
  73   1              // 中断法
  74   1              while(1)
  75   1              {
  76   2                      // 数码管不显示信息
  77   2                      P1 = P2 = table[16];
  78   2                      
  79   2                      // 数码管不显示信息
  80   2                      P1 = P2 = table[16];
  81   2                      
  82   2                      if(temp++ == 255)
  83   2                      {
  84   3                              temp = 0;
  85   3                      }
  86   2                      // 得到一个0-16之间的数
  87   2                      n = temp % 16;
  88   2                      
  89   2                      // 发送信息
  90   2                      SBUF = table[n];
  91   2                      // 将字符显示在数码管上
  92   2                      P1 = table[n];
  93   2      
  94   2                      delay(5);
  95   2              }
  96   1      }
  97          
  98          // 串口中断函数
  99          void Serial() interrupt 4
 100          {
 101   1              // 接收到信息，并在数码管上显示
 102   1              if(RI == 1)
 103   1              {
 104   2                      P2 = SBUF;
 105   2                      RI = 0;
 106   2              }
 107   1              
 108   1              // 发送完毕
 109   1              if(TI == 1)
 110   1              {
 111   2                      TI = 0;
 112   2              }
 113   1      }
 114          
 115          // 延时函数
 116          void delay(uint t)
C51 COMPILER V9.54   PROGRAM                                                               12/18/2016 15:49:12 PAGE 3   

 117          {
 118   1              uint tm = 114;
 119   1              while(t--)
 120   1              {
 121   2                      while(tm--);
 122   2              }
 123   1      }


MODULE INFORMATION:   STATIC OVERLAYABLE
   CODE SIZE        =    113    ----
   CONSTANT SIZE    =     17    ----
   XDATA SIZE       =   ----    ----
   PDATA SIZE       =   ----    ----
   DATA SIZE        =   ----       2
   IDATA SIZE       =   ----    ----
   BIT SIZE         =   ----    ----
END OF MODULE INFORMATION.


C51 COMPILATION COMPLETE.  0 WARNING(S),  0 ERROR(S)
