BL51 BANKED LINKER/LOCATER V6.22                                                        12/17/2016  20:58:34  PAGE 1


BL51 BANKED LINKER/LOCATER V6.22, INVOKED BY:
C:\KEIL_V5\C51\BIN\BL51.EXE .\Objects\STARTUP.obj, .\Objects\Program.obj TO .\Objects\Project PRINT (.\Listings\Project.
>> m51) RAMSIZE (256)


MEMORY MODEL: SMALL


INPUT MODULES INCLUDED:
  .\Objects\STARTUP.obj (?C_STARTUP)
  .\Objects\Program.obj (PROGRAM)
  C:\KEIL_V5\C51\LIB\C51S.LIB (?C_INIT)


LINK MAP OF MODULE:  .\Objects\Project (?C_STARTUP)


            TYPE    BASE      LENGTH    RELOCATION   SEGMENT NAME
            -----------------------------------------------------

            * * * * * * *   D A T A   M E M O R Y   * * * * * * *
            REG     0000H     0008H     ABSOLUTE     "REG BANK 0"
            DATA    0008H     0005H     UNIT         ?DT?PROGRAM
            DATA    000DH     0001H     UNIT         _DATA_GROUP_
            IDATA   000EH     0001H     UNIT         ?STACK

            * * * * * * *   C O D E   M E M O R Y   * * * * * * *
            CODE    0000H     0003H     ABSOLUTE     
            CODE    0003H     0180H     UNIT         ?CO?PROGRAM
            CODE    0183H     008CH     UNIT         ?C_C51STARTUP
            CODE    020FH     0083H     UNIT         ?PR?MAIN?PROGRAM
            CODE    0292H     0030H     UNIT         ?PR?_DELAY?PROGRAM
            CODE    02C2H     0010H     UNIT         ?C_INITSEG



OVERLAY MAP OF MODULE:   .\Objects\Project (?C_STARTUP)


SEGMENT                          DATA_GROUP 
  +--> CALLED SEGMENT          START    LENGTH
----------------------------------------------
?C_C51STARTUP                  -----    -----
  +--> ?PR?MAIN?PROGRAM
  +--> ?C_INITSEG

?PR?MAIN?PROGRAM               000DH    0001H
  +--> ?PR?_DELAY?PROGRAM

?PR?_DELAY?PROGRAM             -----    -----
  +--> ?CO?PROGRAM



SYMBOL TABLE OF MODULE:  .\Objects\Project (?C_STARTUP)

  VALUE           TYPE          NAME
  ----------------------------------
BL51 BANKED LINKER/LOCATER V6.22                                                      12/17/2016  20:58:34  PAGE 2



  -------         MODULE        ?C_STARTUP
  C:0183H         SEGMENT       ?C_C51STARTUP
  I:000EH         SEGMENT       ?STACK
  C:0000H         PUBLIC        ?C_STARTUP
  D:00E0H         SYMBOL        ACC
  D:00F0H         SYMBOL        B
  D:0083H         SYMBOL        DPH
  D:0082H         SYMBOL        DPL
  N:0000H         SYMBOL        IBPSTACK
  N:0100H         SYMBOL        IBPSTACKTOP
  N:0080H         SYMBOL        IDATALEN
  C:0186H         SYMBOL        IDATALOOP
  N:0000H         SYMBOL        PBPSTACK
  N:0100H         SYMBOL        PBPSTACKTOP
  N:0000H         SYMBOL        PDATALEN
  N:0000H         SYMBOL        PDATASTART
  N:0000H         SYMBOL        PPAGE
  N:0000H         SYMBOL        PPAGEENABLE
  D:00A0H         SYMBOL        PPAGE_SFR
  D:0081H         SYMBOL        SP
  C:0183H         SYMBOL        STARTUP1
  N:0000H         SYMBOL        XBPSTACK
  N:0000H         SYMBOL        XBPSTACKTOP
  N:0000H         SYMBOL        XDATALEN
  N:0000H         SYMBOL        XDATASTART
  C:0000H         LINE#         126
  C:0183H         LINE#         133
  C:0185H         LINE#         134
  C:0186H         LINE#         135
  C:0187H         LINE#         136
  C:0189H         LINE#         185
  C:018CH         LINE#         196
  -------         ENDMOD        ?C_STARTUP

  -------         MODULE        PROGRAM
  C:0000H         SYMBOL        _ICE_DUMMY_
  D:0080H         PUBLIC        P0
  D:0090H         PUBLIC        P1
  D:00A0H         PUBLIC        P2
  D:00B0H         PUBLIC        P3
  D:0008H         PUBLIC        offset
  C:02ADH         PUBLIC        _delay
  D:0009H         PUBLIC        times
  C:020FH         PUBLIC        main
  C:0003H         PUBLIC        fonts
  D:000AH         PUBLIC        temp
  D:000BH         PUBLIC        pos
  D:000CH         PUBLIC        n
  -------         PROC          MAIN
  -------         DO            
  D:000DH         SYMBOL        i
  -------         ENDDO         
  C:020FH         LINE#         112
  C:020FH         LINE#         113
  C:020FH         LINE#         114
  C:0212H         LINE#         115
BL51 BANKED LINKER/LOCATER V6.22                                                      12/17/2016  20:58:34  PAGE 3


  C:0212H         LINE#         116
  C:0212H         LINE#         117
  C:0215H         LINE#         118
  C:0215H         LINE#         119
  C:0218H         LINE#         121
  C:0222H         LINE#         122
  C:0222H         LINE#         126
  C:0225H         LINE#         127
  C:0228H         LINE#         128
  C:0232H         LINE#         129
  C:0232H         LINE#         131
  C:0235H         LINE#         133
  C:0235H         LINE#         134
  C:0235H         LINE#         137
  C:0235H         LINE#         138
  C:0235H         LINE#         140
  C:0238H         LINE#         143
  C:023EH         LINE#         144
  C:0244H         LINE#         145
  C:024EH         LINE#         146
  C:0254H         LINE#         150
  C:0257H         LINE#         151
  C:025AH         LINE#         152
  C:0264H         LINE#         153
  C:0264H         LINE#         155
  C:0267H         LINE#         157
  C:0267H         LINE#         158
  C:0267H         LINE#         161
  C:0267H         LINE#         162
  C:0267H         LINE#         164
  C:026AH         LINE#         167
  C:0270H         LINE#         168
  C:0276H         LINE#         169
  C:0280H         LINE#         170
  C:0286H         LINE#         171
  C:0286H         LINE#         172
  -------         ENDPROC       MAIN
  -------         PROC          L?0021
  -------         ENDPROC       L?0021
  -------         PROC          _DELAY
  D:0006H         SYMBOL        t
  -------         DO            
  D:0005H         SYMBOL        tm
  -------         ENDDO         
  C:02ADH         LINE#         176
  C:02ADH         LINE#         177
  C:02ADH         LINE#         178
  C:02AFH         LINE#         179
  C:02B9H         LINE#         180
  C:02B9H         LINE#         181
  C:02C1H         LINE#         183
  -------         ENDPROC       _DELAY
  -------         ENDMOD        PROGRAM

Program Size: data=15.0 xdata=0 code=722
LINK/LOCATE RUN COMPLETE.  0 WARNING(S),  0 ERROR(S)
