BL51 BANKED LINKER/LOCATER V6.22                                                        12/07/2016  22:50:19  PAGE 1


BL51 BANKED LINKER/LOCATER V6.22, INVOKED BY:
C:\KEIL_V5\C51\BIN\BL51.EXE .\Objects\STARTUP.obj, .\Objects\Program.obj TO .\Objects\Program PRINT (.\Listings\Program.
>> m51) RAMSIZE (256)


MEMORY MODEL: SMALL


INPUT MODULES INCLUDED:
  .\Objects\STARTUP.obj (?C_STARTUP)
  .\Objects\Program.obj (PROGRAM)
  C:\KEIL_V5\C51\LIB\C51S.LIB (?C_INIT)


LINK MAP OF MODULE:  .\Objects\Program (?C_STARTUP)


            TYPE    BASE      LENGTH    RELOCATION   SEGMENT NAME
            -----------------------------------------------------

            * * * * * * *   D A T A   M E M O R Y   * * * * * * *
            REG     0000H     0008H     ABSOLUTE     "REG BANK 0"
            DATA    0008H     0002H     UNIT         ?DT?PROGRAM
            IDATA   000AH     0001H     UNIT         ?STACK

            * * * * * * *   C O D E   M E M O R Y   * * * * * * *
            CODE    0000H     0003H     ABSOLUTE     
            CODE    0003H     0007H     UNIT         ?C_INITSEG
                    000AH     0001H                  *** GAP ***
            CODE    000BH     0003H     ABSOLUTE     
            CODE    000EH     008CH     UNIT         ?C_C51STARTUP
            CODE    009AH     003DH     UNIT         ?PR?TIMER0?PROGRAM
            CODE    00D7H     0011H     UNIT         ?PR?MAIN?PROGRAM
            CODE    00E8H     0010H     UNIT         ?CO?PROGRAM



OVERLAY MAP OF MODULE:   .\Objects\Program (?C_STARTUP)


SEGMENT
  +--> CALLED SEGMENT
---------------------
?C_C51STARTUP
  +--> ?PR?MAIN?PROGRAM
  +--> ?C_INITSEG

*** NEW ROOT ***************************************************

?PR?TIMER0?PROGRAM
  +--> ?CO?PROGRAM



SYMBOL TABLE OF MODULE:  .\Objects\Program (?C_STARTUP)

  VALUE           TYPE          NAME
  ----------------------------------
BL51 BANKED LINKER/LOCATER V6.22                                                      12/07/2016  22:50:19  PAGE 2



  -------         MODULE        ?C_STARTUP
  C:000EH         SEGMENT       ?C_C51STARTUP
  I:000AH         SEGMENT       ?STACK
  C:0000H         PUBLIC        ?C_STARTUP
  D:00E0H         SYMBOL        ACC
  D:00F0H         SYMBOL        B
  D:0083H         SYMBOL        DPH
  D:0082H         SYMBOL        DPL
  N:0000H         SYMBOL        IBPSTACK
  N:0100H         SYMBOL        IBPSTACKTOP
  N:0080H         SYMBOL        IDATALEN
  C:0011H         SYMBOL        IDATALOOP
  N:0000H         SYMBOL        PBPSTACK
  N:0100H         SYMBOL        PBPSTACKTOP
  N:0000H         SYMBOL        PDATALEN
  N:0000H         SYMBOL        PDATASTART
  N:0000H         SYMBOL        PPAGE
  N:0000H         SYMBOL        PPAGEENABLE
  D:00A0H         SYMBOL        PPAGE_SFR
  D:0081H         SYMBOL        SP
  C:000EH         SYMBOL        STARTUP1
  N:0000H         SYMBOL        XBPSTACK
  N:0000H         SYMBOL        XBPSTACKTOP
  N:0000H         SYMBOL        XDATALEN
  N:0000H         SYMBOL        XDATASTART
  C:0000H         LINE#         126
  C:000EH         LINE#         133
  C:0010H         LINE#         134
  C:0011H         LINE#         135
  C:0012H         LINE#         136
  C:0014H         LINE#         185
  C:0017H         LINE#         196
  -------         ENDMOD        ?C_STARTUP

  -------         MODULE        PROGRAM
  C:0000H         SYMBOL        _ICE_DUMMY_
  D:0090H         PUBLIC        P1
  B:00A8H.7       PUBLIC        EA
  C:00E8H         PUBLIC        table
  C:00D7H         PUBLIC        main
  D:0008H         PUBLIC        time
  D:0089H         PUBLIC        TMOD
  B:00A8H.1       PUBLIC        ET0
  D:008CH         PUBLIC        TH0
  D:008AH         PUBLIC        TL0
  D:0009H         PUBLIC        num
  C:009AH         PUBLIC        timer0
  B:0088H.4       PUBLIC        TR0
  -------         PROC          MAIN
  C:00D7H         LINE#         23
  C:00D7H         LINE#         24
  C:00D7H         LINE#         26
  C:00DAH         LINE#         27
  C:00DDH         LINE#         30
  C:00DFH         LINE#         32
  C:00E1H         LINE#         34
BL51 BANKED LINKER/LOCATER V6.22                                                      12/07/2016  22:50:19  PAGE 3


  C:00E4H         LINE#         36
  C:00E6H         LINE#         38
  -------         ENDPROC       MAIN
  -------         PROC          TIMER0
  C:009AH         LINE#         42
  C:00A7H         LINE#         45
  C:00AAH         LINE#         46
  C:00ADH         LINE#         48
  C:00AFH         LINE#         50
  C:00B4H         LINE#         51
  C:00B4H         LINE#         52
  C:00B7H         LINE#         53
  C:00C1H         LINE#         55
  C:00CCH         LINE#         56
  C:00CCH         LINE#         57
  -------         ENDPROC       TIMER0
  -------         ENDMOD        PROGRAM

Program Size: data=11.0 xdata=0 code=247
LINK/LOCATE RUN COMPLETE.  0 WARNING(S),  0 ERROR(S)
